{
  "_format": "hh-sol-artifact-1",
  "contractName": "Counter",
  "sourceName": "contracts/Counter.sol",
  "abi": [
    {
      "inputs": [],
      "name": "getCount",
      "outputs": [
        {
          "internalType": "uint32",
          "name": "",
          "type": "uint32"
        }
      ],
      "stateMutability": "view",
      "type": "function"
    },
    {
      "inputs": [],
      "name": "incrementCount",
      "outputs": [],
      "stateMutability": "nonpayable",
      "type": "function"
    }
  ],
  "bytecode": "0x608060405234801561001057600080fd5b5061018a806100206000396000f3fe608060405234801561001057600080fd5b50600436106100365760003560e01c8063a87d942c1461003b578063e5071b8e14610059575b600080fd5b610043610063565b60405161005091906100cd565b60405180910390f35b61006161007c565b005b60008060009054906101000a900463ffffffff16905090565b60008081819054906101000a900463ffffffff168092919061009d906100f8565b91906101000a81548163ffffffff021916908363ffffffff16021790555050565b6100c7816100e8565b82525050565b60006020820190506100e260008301846100be565b92915050565b600063ffffffff82169050919050565b6000610103826100e8565b915063ffffffff82141561011a57610119610125565b5b600182019050919050565b7f4e487b7100000000000000000000000000000000000000000000000000000000600052601160045260246000fdfea26469706673582212206f37eba1697d45a22e4fd4e116feebfb7f754340c8fb5aae826082f4d1959d7264736f6c63430008000033",
  "linkReferences": {},
  "deployedLinkReferences": {}
}