{
  "_format": "hh-sol-artifact-1",
  "contractName": "Counter",
  "sourceName": "contracts/Counter.sol",
  "abi": [
    {
      "inputs": [],
      "name": "getCount",
      "outputs": [
        {
          "internalType": "uint32",
          "name": "",
          "type": "uint32"
        }
      ],
      "stateMutability": "view",
      "type": "function"
    },
    {
      "inputs": [],
      "name": "incrementCount",
      "outputs": [],
      "stateMutability": "nonpayable",
      "type": "function"
    }
  ],
  "bytecode": "0x608060405234801561001057600080fd5b50610177806100206000396000f3fe608060405234801561001057600080fd5b50600436106100365760003560e01c8063a87d942c1461003b578063e5071b8e14610059575b600080fd5b610043610063565b6040516100509190610094565b60405180910390f35b61006161006c565b005b60008054905090565b60008081548092919061007e906100c9565b9190505550565b61008e816100b9565b82525050565b60006020820190506100a96000830184610085565b92915050565b6000819050919050565b600063ffffffff82169050919050565b60006100d4826100af565b91507fffffffffffffffffffffffffffffffffffffffffffffffffffffffffffffffff82141561010757610106610112565b5b600182019050919050565b7f4e487b7100000000000000000000000000000000000000000000000000000000600052601160045260246000fdfea264697066735822122002b5c7193a68da3085ebc6e127e5144cfc05519a2abe4f404b234fd43bf8d25864736f6c63430008000033",
  "linkReferences": {},
  "deployedLinkReferences": {}
}