{
  "_format": "hh-sol-artifact-1",
  "contractName": "Counter",
  "sourceName": "contracts/Counter.sol",
  "abi": [
    {
      "inputs": [],
      "name": "getCount",
      "outputs": [
        {
          "internalType": "uint256",
          "name": "",
          "type": "uint256"
        }
      ],
      "stateMutability": "view",
      "type": "function"
    },
    {
      "inputs": [],
      "name": "incrementCount",
      "outputs": [],
      "stateMutability": "nonpayable",
      "type": "function"
    }
  ],
  "bytecode": "0x608060405234801561001057600080fd5b50610167806100206000396000f3fe608060405234801561001057600080fd5b50600436106100365760003560e01c8063a87d942c1461003b578063e5071b8e14610059575b600080fd5b610043610063565b6040516100509190610094565b60405180910390f35b61006161006c565b005b60008054905090565b60008081548092919061007e906100b9565b9190505550565b61008e816100af565b82525050565b60006020820190506100a96000830184610085565b92915050565b6000819050919050565b60006100c4826100af565b91507fffffffffffffffffffffffffffffffffffffffffffffffffffffffffffffffff8214156100f7576100f6610102565b5b600182019050919050565b7f4e487b7100000000000000000000000000000000000000000000000000000000600052601160045260246000fdfea2646970667358221220e4c3f568cd1cfc431e655bf3fed18a2d96176d47635c091d9425a5402696e7e464736f6c63430008000033",
  "linkReferences": {},
  "deployedLinkReferences": {}
}